{
  "address": "0xb7D6C2680f333Bb2eC1300E58abDeAc3f3833ee5",
  "abi": [
    {
      "inputs": [
        {
          "internalType": "address",
          "name": "vefCoordinatorV2",
          "type": "address"
        },
        {
          "internalType": "bytes32",
          "name": "gasLane",
          "type": "bytes32"
        },
        {
          "internalType": "uint64",
          "name": "subId",
          "type": "uint64"
        },
        {
          "internalType": "uint32",
          "name": "callbackGasLimit",
          "type": "uint32"
        }
      ],
      "stateMutability": "payable",
      "type": "constructor"
    },
    {
      "inputs": [],
      "name": "GuessNumber__PaymentNotEnough",
      "type": "error"
    },
    {
      "inputs": [
        {
          "internalType": "address",
          "name": "have",
          "type": "address"
        },
        {
          "internalType": "address",
          "name": "want",
          "type": "address"
        }
      ],
      "name": "OnlyCoordinatorCanFulfill",
      "type": "error"
    },
    {
      "inputs": [
        {
          "internalType": "address",
          "name": "_address",
          "type": "address"
        }
      ],
      "name": "getAmountByAddress",
      "outputs": [
        {
          "internalType": "uint256",
          "name": "",
          "type": "uint256"
        }
      ],
      "stateMutability": "view",
      "type": "function"
    },
    {
      "inputs": [],
      "name": "getContractBalance",
      "outputs": [
        {
          "internalType": "uint256",
          "name": "",
          "type": "uint256"
        }
      ],
      "stateMutability": "view",
      "type": "function"
    },
    {
      "inputs": [],
      "name": "getContractOwner",
      "outputs": [
        {
          "internalType": "address",
          "name": "",
          "type": "address"
        }
      ],
      "stateMutability": "view",
      "type": "function"
    },
    {
      "inputs": [],
      "name": "getMinPayment",
      "outputs": [
        {
          "internalType": "uint256",
          "name": "",
          "type": "uint256"
        }
      ],
      "stateMutability": "view",
      "type": "function"
    },
    {
      "inputs": [],
      "name": "getRandomWord",
      "outputs": [
        {
          "internalType": "uint256",
          "name": "",
          "type": "uint256"
        }
      ],
      "stateMutability": "view",
      "type": "function"
    },
    {
      "inputs": [],
      "name": "getTotalPayments",
      "outputs": [
        {
          "internalType": "uint256",
          "name": "",
          "type": "uint256"
        }
      ],
      "stateMutability": "view",
      "type": "function"
    },
    {
      "inputs": [],
      "name": "payment",
      "outputs": [],
      "stateMutability": "payable",
      "type": "function"
    },
    {
      "inputs": [
        {
          "internalType": "uint256",
          "name": "requestId",
          "type": "uint256"
        },
        {
          "internalType": "uint256[]",
          "name": "randomWords",
          "type": "uint256[]"
        }
      ],
      "name": "rawFulfillRandomWords",
      "outputs": [],
      "stateMutability": "nonpayable",
      "type": "function"
    },
    {
      "inputs": [],
      "name": "requestId",
      "outputs": [
        {
          "internalType": "uint256",
          "name": "",
          "type": "uint256"
        }
      ],
      "stateMutability": "view",
      "type": "function"
    },
    {
      "inputs": [],
      "name": "requestRandomWords",
      "outputs": [],
      "stateMutability": "nonpayable",
      "type": "function"
    }
  ],
  "transactionHash": "0x03017d01cd5d739f35bdca8d37818fb515350d61bb52175d51d2069a31249a78",
  "args": [
    "0x8103B0A8A00be2DDC778e6e7eaa21791Cd364625",
    "0x474e34a077df58807dbe9c96d3c009b23b3c6d0cce433e59bbf5b34f823bc56c",
    "2692",
    "500000"
  ],
  "numDeployments": 2,
  "solcInputHash": "4cd3c227326c6282b4c2f03bd58a8836",
  "bytecode": "0x61014060405267016345785d8a00006003556001600660006101000a81548160ff02191690831515021790555060405162000d5f38038062000d5f83398181016040528101906200005191906200025e565b838073ffffffffffffffffffffffffffffffffffffffff1660808173ffffffffffffffffffffffffffffffffffffffff1681525050503373ffffffffffffffffffffffffffffffffffffffff1660a08173ffffffffffffffffffffffffffffffffffffffff16815250508373ffffffffffffffffffffffffffffffffffffffff1660c08173ffffffffffffffffffffffffffffffffffffffff16815250508260e081815250508167ffffffffffffffff166101008167ffffffffffffffff16815250508063ffffffff166101208163ffffffff168152505050505050620002d0565b600080fd5b600073ffffffffffffffffffffffffffffffffffffffff82169050919050565b6000620001658262000138565b9050919050565b620001778162000158565b81146200018357600080fd5b50565b60008151905062000197816200016c565b92915050565b6000819050919050565b620001b2816200019d565b8114620001be57600080fd5b50565b600081519050620001d281620001a7565b92915050565b600067ffffffffffffffff82169050919050565b620001f781620001d8565b81146200020357600080fd5b50565b6000815190506200021781620001ec565b92915050565b600063ffffffff82169050919050565b62000238816200021d565b81146200024457600080fd5b50565b60008151905062000258816200022d565b92915050565b600080600080608085870312156200027b576200027a62000133565b5b60006200028b8782880162000186565b94505060206200029e87828801620001c1565b9350506040620002b18782880162000206565b9250506060620002c48782880162000247565b91505092959194509250565b60805160a05160c05160e0516101005161012051610a386200032760003960006104aa01526000610487015260006104660152600061042a01526000610395015260008181610226015261027a0152610a386000f3fe6080604052600436106100905760003560e01c8063708f29a611610059578063708f29a61461014957806377a890cd14610174578063a75454f41461019f578063c8249f92146101ca578063e0c862891461020757610090565b80626d6cae146100955780631fe543e3146100c057806342f6487a146100e9578063442890d5146100f35780636f9fb98a1461011e575b600080fd5b3480156100a157600080fd5b506100aa61021e565b6040516100b79190610575565b60405180910390f35b3480156100cc57600080fd5b506100e760048036038101906100e29190610729565b610224565b005b6100f16102e4565b005b3480156100ff57600080fd5b50610108610391565b60405161011591906107c6565b60405180910390f35b34801561012a57600080fd5b506101336103b9565b6040516101409190610575565b60405180910390f35b34801561015557600080fd5b5061015e6103c1565b60405161016b9190610575565b60405180910390f35b34801561018057600080fd5b506101896103cb565b6040516101969190610575565b60405180910390f35b3480156101ab57600080fd5b506101b46103d5565b6040516101c19190610575565b60405180910390f35b3480156101d657600080fd5b506101f160048036038101906101ec919061080d565b6103df565b6040516101fe9190610575565b60405180910390f35b34801561021357600080fd5b5061021c610428565b005b60045481565b7f000000000000000000000000000000000000000000000000000000000000000073ffffffffffffffffffffffffffffffffffffffff163373ffffffffffffffffffffffffffffffffffffffff16146102d657337f00000000000000000000000000000000000000000000000000000000000000006040517f1cf993f40000000000000000000000000000000000000000000000000000000081526004016102cd92919061083a565b60405180910390fd5b6102e08282610536565b5050565b600354341015610320576040517fba67e20c00000000000000000000000000000000000000000000000000000000815260040160405180910390fd5b34600260008282546103329190610892565b9250508190555034600160003373ffffffffffffffffffffffffffffffffffffffff1673ffffffffffffffffffffffffffffffffffffffff16815260200190815260200160002060008282546103889190610892565b92505081905550565b60007f0000000000000000000000000000000000000000000000000000000000000000905090565b600047905090565b6000600254905090565b6000600354905090565b6000600554905090565b6000600160008373ffffffffffffffffffffffffffffffffffffffff1673ffffffffffffffffffffffffffffffffffffffff168152602001908152602001600020549050919050565b7f000000000000000000000000000000000000000000000000000000000000000073ffffffffffffffffffffffffffffffffffffffff16635d3b1d307f00000000000000000000000000000000000000000000000000000000000000007f000000000000000000000000000000000000000000000000000000000000000060037f000000000000000000000000000000000000000000000000000000000000000060016040518663ffffffff1660e01b81526004016104eb95949392919061093e565b6020604051808303816000875af115801561050a573d6000803e3d6000fd5b505050506040513d601f19601f8201168201806040525081019061052e91906109a6565b600481905550565b8060008151811061054a576105496109d3565b5b60200260200101516005819055505050565b6000819050919050565b61056f8161055c565b82525050565b600060208201905061058a6000830184610566565b92915050565b6000604051905090565b600080fd5b600080fd5b6105ad8161055c565b81146105b857600080fd5b50565b6000813590506105ca816105a4565b92915050565b600080fd5b6000601f19601f8301169050919050565b7f4e487b7100000000000000000000000000000000000000000000000000000000600052604160045260246000fd5b61061e826105d5565b810181811067ffffffffffffffff8211171561063d5761063c6105e6565b5b80604052505050565b6000610650610590565b905061065c8282610615565b919050565b600067ffffffffffffffff82111561067c5761067b6105e6565b5b602082029050602081019050919050565b600080fd5b60006106a56106a084610661565b610646565b905080838252602082019050602084028301858111156106c8576106c761068d565b5b835b818110156106f157806106dd88826105bb565b8452602084019350506020810190506106ca565b5050509392505050565b600082601f8301126107105761070f6105d0565b5b8135610720848260208601610692565b91505092915050565b600080604083850312156107405761073f61059a565b5b600061074e858286016105bb565b925050602083013567ffffffffffffffff81111561076f5761076e61059f565b5b61077b858286016106fb565b9150509250929050565b600073ffffffffffffffffffffffffffffffffffffffff82169050919050565b60006107b082610785565b9050919050565b6107c0816107a5565b82525050565b60006020820190506107db60008301846107b7565b92915050565b6107ea816107a5565b81146107f557600080fd5b50565b600081359050610807816107e1565b92915050565b6000602082840312156108235761082261059a565b5b6000610831848285016107f8565b91505092915050565b600060408201905061084f60008301856107b7565b61085c60208301846107b7565b9392505050565b7f4e487b7100000000000000000000000000000000000000000000000000000000600052601160045260246000fd5b600061089d8261055c565b91506108a88361055c565b92508282019050808211156108c0576108bf610863565b5b92915050565b6000819050919050565b6108d9816108c6565b82525050565b600067ffffffffffffffff82169050919050565b6108fc816108df565b82525050565b600061ffff82169050919050565b61091981610902565b82525050565b600063ffffffff82169050919050565b6109388161091f565b82525050565b600060a08201905061095360008301886108d0565b61096060208301876108f3565b61096d6040830186610910565b61097a606083018561092f565b610987608083018461092f565b9695505050505050565b6000815190506109a0816105a4565b92915050565b6000602082840312156109bc576109bb61059a565b5b60006109ca84828501610991565b91505092915050565b7f4e487b7100000000000000000000000000000000000000000000000000000000600052603260045260246000fdfea2646970667358221220a6742c62a5acc69332871cc1b76db9282b1bbec68b0d4382dd73b327672afa2764736f6c63430008120033",
  "devdoc": {
    "kind": "dev",
    "methods": {},
    "version": 1
  },
  "userdoc": {
    "kind": "user",
    "methods": {},
    "version": 1
  },
  "storageLayout": {
    "storage": [
      {
        "astId": 166,
        "contract": "contracts/GuessNumber.sol:GuessNumber",
        "label": "COORDINATOR",
        "offset": 0,
        "slot": "0",
        "type": "t_contract(VRFCoordinatorV2Interface)153"
      },
      {
        "astId": 173,
        "contract": "contracts/GuessNumber.sol:GuessNumber",
        "label": "paymentAddress",
        "offset": 0,
        "slot": "1",
        "type": "t_mapping(t_address,t_uint256)"
      },
      {
        "astId": 175,
        "contract": "contracts/GuessNumber.sol:GuessNumber",
        "label": "totalPayments",
        "offset": 0,
        "slot": "2",
        "type": "t_uint256"
      },
      {
        "astId": 178,
        "contract": "contracts/GuessNumber.sol:GuessNumber",
        "label": "minPayment",
        "offset": 0,
        "slot": "3",
        "type": "t_uint256"
      },
      {
        "astId": 196,
        "contract": "contracts/GuessNumber.sol:GuessNumber",
        "label": "requestId",
        "offset": 0,
        "slot": "4",
        "type": "t_uint256"
      },
      {
        "astId": 199,
        "contract": "contracts/GuessNumber.sol:GuessNumber",
        "label": "randomWords",
        "offset": 0,
        "slot": "5",
        "type": "t_uint256"
      },
      {
        "astId": 202,
        "contract": "contracts/GuessNumber.sol:GuessNumber",
        "label": "creatingRandomNumber",
        "offset": 0,
        "slot": "6",
        "type": "t_bool"
      }
    ],
    "types": {
      "t_address": {
        "encoding": "inplace",
        "label": "address",
        "numberOfBytes": "20"
      },
      "t_bool": {
        "encoding": "inplace",
        "label": "bool",
        "numberOfBytes": "1"
      },
      "t_contract(VRFCoordinatorV2Interface)153": {
        "encoding": "inplace",
        "label": "contract VRFCoordinatorV2Interface",
        "numberOfBytes": "20"
      },
      "t_mapping(t_address,t_uint256)": {
        "encoding": "mapping",
        "key": "t_address",
        "label": "mapping(address => uint256)",
        "numberOfBytes": "32",
        "value": "t_uint256"
      },
      "t_uint256": {
        "encoding": "inplace",
        "label": "uint256",
        "numberOfBytes": "32"
      }
    }
  }
}