{
  "address": "0xeCcb4e82DcFb3327471d5FD62439AB638800Bbcd",
  "abi": [
    {
      "inputs": [
        {
          "internalType": "address",
          "name": "vefCoordinatorV2",
          "type": "address"
        },
        {
          "internalType": "bytes32",
          "name": "gasLane",
          "type": "bytes32"
        },
        {
          "internalType": "uint64",
          "name": "subId",
          "type": "uint64"
        },
        {
          "internalType": "uint32",
          "name": "callbackGasLimit",
          "type": "uint32"
        }
      ],
      "stateMutability": "payable",
      "type": "constructor"
    },
    {
      "inputs": [],
      "name": "GuessNumber__OutOfRange",
      "type": "error"
    },
    {
      "inputs": [],
      "name": "GuessNumber__PaymentNotEnough",
      "type": "error"
    },
    {
      "inputs": [],
      "name": "GuessNumber__RandomNumberCreating",
      "type": "error"
    },
    {
      "inputs": [],
      "name": "GuessNumber__TransferFailed",
      "type": "error"
    },
    {
      "inputs": [
        {
          "internalType": "address",
          "name": "have",
          "type": "address"
        },
        {
          "internalType": "address",
          "name": "want",
          "type": "address"
        }
      ],
      "name": "OnlyCoordinatorCanFulfill",
      "type": "error"
    },
    {
      "anonymous": false,
      "inputs": [
        {
          "indexed": true,
          "internalType": "address",
          "name": "player",
          "type": "address"
        },
        {
          "indexed": false,
          "internalType": "uint256",
          "name": "playerNumber",
          "type": "uint256"
        }
      ],
      "name": "NotWinner",
      "type": "event"
    },
    {
      "anonymous": false,
      "inputs": [
        {
          "indexed": true,
          "internalType": "address",
          "name": "player",
          "type": "address"
        },
        {
          "indexed": false,
          "internalType": "uint256",
          "name": "playerNumber",
          "type": "uint256"
        }
      ],
      "name": "Winner",
      "type": "event"
    },
    {
      "inputs": [
        {
          "internalType": "uint256",
          "name": "_playerNumber",
          "type": "uint256"
        }
      ],
      "name": "drawLottery",
      "outputs": [],
      "stateMutability": "payable",
      "type": "function"
    },
    {
      "inputs": [
        {
          "internalType": "address",
          "name": "_address",
          "type": "address"
        }
      ],
      "name": "getAmountByAddress",
      "outputs": [
        {
          "internalType": "uint256",
          "name": "",
          "type": "uint256"
        }
      ],
      "stateMutability": "view",
      "type": "function"
    },
    {
      "inputs": [],
      "name": "getContractBalance",
      "outputs": [
        {
          "internalType": "uint256",
          "name": "",
          "type": "uint256"
        }
      ],
      "stateMutability": "view",
      "type": "function"
    },
    {
      "inputs": [],
      "name": "getContractOwner",
      "outputs": [
        {
          "internalType": "address",
          "name": "",
          "type": "address"
        }
      ],
      "stateMutability": "view",
      "type": "function"
    },
    {
      "inputs": [],
      "name": "getMinPayment",
      "outputs": [
        {
          "internalType": "uint256",
          "name": "",
          "type": "uint256"
        }
      ],
      "stateMutability": "view",
      "type": "function"
    },
    {
      "inputs": [
        {
          "internalType": "uint256",
          "name": "requestId",
          "type": "uint256"
        },
        {
          "internalType": "uint256[]",
          "name": "randomWords",
          "type": "uint256[]"
        }
      ],
      "name": "rawFulfillRandomWords",
      "outputs": [],
      "stateMutability": "nonpayable",
      "type": "function"
    },
    {
      "inputs": [],
      "name": "requestId",
      "outputs": [
        {
          "internalType": "uint256",
          "name": "",
          "type": "uint256"
        }
      ],
      "stateMutability": "view",
      "type": "function"
    },
    {
      "stateMutability": "payable",
      "type": "receive"
    }
  ],
  "transactionHash": "0xcedbf522a88f94784109f86e59ce616cb884d2f6787ec7a2231c6a11a1e69b09",
  "args": [
    "0x8103B0A8A00be2DDC778e6e7eaa21791Cd364625",
    "0x474e34a077df58807dbe9c96d3c009b23b3c6d0cce433e59bbf5b34f823bc56c",
    "2692",
    "500000"
  ],
  "numDeployments": 3,
  "solcInputHash": "27642e382e32aa33d7df7f87bcd3780f",
  "bytecode": "0x610140604052662386f26fc1000060015560076003556000600460006101000a81548160ff0219169083151502179055506040516200111138038062001111833981810160405281019062000055919062000262565b838073ffffffffffffffffffffffffffffffffffffffff1660808173ffffffffffffffffffffffffffffffffffffffff1681525050503373ffffffffffffffffffffffffffffffffffffffff1660a08173ffffffffffffffffffffffffffffffffffffffff16815250508373ffffffffffffffffffffffffffffffffffffffff1660c08173ffffffffffffffffffffffffffffffffffffffff16815250508260e081815250508167ffffffffffffffff166101008167ffffffffffffffff16815250508063ffffffff166101208163ffffffff168152505050505050620002d4565b600080fd5b600073ffffffffffffffffffffffffffffffffffffffff82169050919050565b600062000169826200013c565b9050919050565b6200017b816200015c565b81146200018757600080fd5b50565b6000815190506200019b8162000170565b92915050565b6000819050919050565b620001b681620001a1565b8114620001c257600080fd5b50565b600081519050620001d681620001ab565b92915050565b600067ffffffffffffffff82169050919050565b620001fb81620001dc565b81146200020757600080fd5b50565b6000815190506200021b81620001f0565b92915050565b600063ffffffff82169050919050565b6200023c8162000221565b81146200024857600080fd5b50565b6000815190506200025c8162000231565b92915050565b600080600080608085870312156200027f576200027e62000137565b5b60006200028f878288016200018a565b9450506020620002a287828801620001c5565b9350506040620002b5878288016200020a565b9250506060620002c8878288016200024b565b91505092959194509250565b60805160a05160c05160e0516101005161012051610de66200032b60003960006106740152600061065101526000610630015260006105f4015260006102770152600081816101b501526102090152610de66000f3fe6080604052600436106100735760003560e01c80636f9fb98a1161004e5780636f9fb98a146100fe57806377a890cd14610129578063c8249f9214610154578063e303a92b146101915761007a565b80626d6cae1461007f5780631fe543e3146100aa578063442890d5146100d35761007a565b3661007a57005b600080fd5b34801561008b57600080fd5b506100946101ad565b6040516100a19190610766565b60405180910390f35b3480156100b657600080fd5b506100d160048036038101906100cc919061091a565b6101b3565b005b3480156100df57600080fd5b506100e8610273565b6040516100f591906109b7565b60405180910390f35b34801561010a57600080fd5b5061011361029b565b6040516101209190610766565b60405180910390f35b34801561013557600080fd5b5061013e6102a3565b60405161014b9190610766565b60405180910390f35b34801561016057600080fd5b5061017b600480360381019061017691906109fe565b6102ad565b6040516101889190610766565b60405180910390f35b6101ab60048036038101906101a69190610a2b565b6102f5565b005b60025481565b7f000000000000000000000000000000000000000000000000000000000000000073ffffffffffffffffffffffffffffffffffffffff163373ffffffffffffffffffffffffffffffffffffffff161461026557337f00000000000000000000000000000000000000000000000000000000000000006040517f1cf993f400000000000000000000000000000000000000000000000000000000815260040161025c929190610a58565b60405180910390fd5b61026f828261058b565b5050565b60007f0000000000000000000000000000000000000000000000000000000000000000905090565b600047905090565b6000600154905090565b60008060008373ffffffffffffffffffffffffffffffffffffffff1673ffffffffffffffffffffffffffffffffffffffff168152602001908152602001600020549050919050565b600154341015610331576040517fba67e20c00000000000000000000000000000000000000000000000000000000815260040160405180910390fd5b600460009054906101000a900460ff1615610378576040517f15cc912f00000000000000000000000000000000000000000000000000000000815260040160405180910390fd5b600a8111806103875750600181105b156103be576040517fd106663b00000000000000000000000000000000000000000000000000000000815260040160405180910390fd5b346000803373ffffffffffffffffffffffffffffffffffffffff1673ffffffffffffffffffffffffffffffffffffffff168152602001908152602001600020600082825461040c9190610ab0565b92505081905550806003541461046f573373ffffffffffffffffffffffffffffffffffffffff167fa671d18f80943522791813b968ea6c8e13e6020778c0fb09f32efb7dddedd502826040516104629190610766565b60405180910390a2610588565b600060646050476104809190610ae4565b61048a9190610b55565b905060003373ffffffffffffffffffffffffffffffffffffffff16826040516104b290610bb7565b60006040518083038185875af1925050503d80600081146104ef576040519150601f19603f3d011682016040523d82523d6000602084013e6104f4565b606091505b505090508061052f576040517f9bedd0ea00000000000000000000000000000000000000000000000000000000815260040160405180910390fd5b6105376105d7565b3373ffffffffffffffffffffffffffffffffffffffff167f9c2270628a9b29d30ae96b6c4c14ed646ee134febdce38a5b77f2bde9cea2e208460405161057d9190610766565b60405180910390a250505b50565b6105af816000815181106105a2576105a1610bcc565b5b6020026020010151610700565b60ff166003819055506000600460006101000a81548160ff0219169083151502179055505050565b6001600460006101000a81548160ff0219169083151502179055507f000000000000000000000000000000000000000000000000000000000000000073ffffffffffffffffffffffffffffffffffffffff16635d3b1d307f00000000000000000000000000000000000000000000000000000000000000007f000000000000000000000000000000000000000000000000000000000000000060037f000000000000000000000000000000000000000000000000000000000000000060016040518663ffffffff1660e01b81526004016106b5959493929190610c73565b6020604051808303816000875af11580156106d4573d6000803e3d6000fd5b505050506040513d601f19601f820116820180604052508101906106f89190610cdb565b600281905550565b600080600190506000600a905060006001838361071d9190610d15565b6107279190610d4a565b9050828160ff16866107399190610d7f565b6107439190610d4a565b9350505050919050565b6000819050919050565b6107608161074d565b82525050565b600060208201905061077b6000830184610757565b92915050565b6000604051905090565b600080fd5b600080fd5b61079e8161074d565b81146107a957600080fd5b50565b6000813590506107bb81610795565b92915050565b600080fd5b6000601f19601f8301169050919050565b7f4e487b7100000000000000000000000000000000000000000000000000000000600052604160045260246000fd5b61080f826107c6565b810181811067ffffffffffffffff8211171561082e5761082d6107d7565b5b80604052505050565b6000610841610781565b905061084d8282610806565b919050565b600067ffffffffffffffff82111561086d5761086c6107d7565b5b602082029050602081019050919050565b600080fd5b600061089661089184610852565b610837565b905080838252602082019050602084028301858111156108b9576108b861087e565b5b835b818110156108e257806108ce88826107ac565b8452602084019350506020810190506108bb565b5050509392505050565b600082601f830112610901576109006107c1565b5b8135610911848260208601610883565b91505092915050565b600080604083850312156109315761093061078b565b5b600061093f858286016107ac565b925050602083013567ffffffffffffffff8111156109605761095f610790565b5b61096c858286016108ec565b9150509250929050565b600073ffffffffffffffffffffffffffffffffffffffff82169050919050565b60006109a182610976565b9050919050565b6109b181610996565b82525050565b60006020820190506109cc60008301846109a8565b92915050565b6109db81610996565b81146109e657600080fd5b50565b6000813590506109f8816109d2565b92915050565b600060208284031215610a1457610a1361078b565b5b6000610a22848285016109e9565b91505092915050565b600060208284031215610a4157610a4061078b565b5b6000610a4f848285016107ac565b91505092915050565b6000604082019050610a6d60008301856109a8565b610a7a60208301846109a8565b9392505050565b7f4e487b7100000000000000000000000000000000000000000000000000000000600052601160045260246000fd5b6000610abb8261074d565b9150610ac68361074d565b9250828201905080821115610ade57610add610a81565b5b92915050565b6000610aef8261074d565b9150610afa8361074d565b9250828202610b088161074d565b91508282048414831517610b1f57610b1e610a81565b5b5092915050565b7f4e487b7100000000000000000000000000000000000000000000000000000000600052601260045260246000fd5b6000610b608261074d565b9150610b6b8361074d565b925082610b7b57610b7a610b26565b5b828204905092915050565b600081905092915050565b50565b6000610ba1600083610b86565b9150610bac82610b91565b600082019050919050565b6000610bc282610b94565b9150819050919050565b7f4e487b7100000000000000000000000000000000000000000000000000000000600052603260045260246000fd5b6000819050919050565b610c0e81610bfb565b82525050565b600067ffffffffffffffff82169050919050565b610c3181610c14565b82525050565b600061ffff82169050919050565b610c4e81610c37565b82525050565b600063ffffffff82169050919050565b610c6d81610c54565b82525050565b600060a082019050610c886000830188610c05565b610c956020830187610c28565b610ca26040830186610c45565b610caf6060830185610c64565b610cbc6080830184610c64565b9695505050505050565b600081519050610cd581610795565b92915050565b600060208284031215610cf157610cf061078b565b5b6000610cff84828501610cc6565b91505092915050565b600060ff82169050919050565b6000610d2082610d08565b9150610d2b83610d08565b9250828203905060ff811115610d4457610d43610a81565b5b92915050565b6000610d5582610d08565b9150610d6083610d08565b9250828201905060ff811115610d7957610d78610a81565b5b92915050565b6000610d8a8261074d565b9150610d958361074d565b925082610da557610da4610b26565b5b82820690509291505056fea264697066735822122081d8b19ccab8e1b43f438b195686103a62531e4c41c0fe72f2cf418ec280101764736f6c63430008120033",
  "devdoc": {
    "kind": "dev",
    "methods": {},
    "version": 1
  },
  "userdoc": {
    "kind": "user",
    "methods": {},
    "version": 1
  },
  "storageLayout": {
    "storage": [
      {
        "astId": 1146,
        "contract": "contracts/GuessNumber.sol:GuessNumber",
        "label": "paymentAddress",
        "offset": 0,
        "slot": "0",
        "type": "t_mapping(t_address,t_uint256)"
      },
      {
        "astId": 1149,
        "contract": "contracts/GuessNumber.sol:GuessNumber",
        "label": "minPayment",
        "offset": 0,
        "slot": "1",
        "type": "t_uint256"
      },
      {
        "astId": 1167,
        "contract": "contracts/GuessNumber.sol:GuessNumber",
        "label": "requestId",
        "offset": 0,
        "slot": "2",
        "type": "t_uint256"
      },
      {
        "astId": 1171,
        "contract": "contracts/GuessNumber.sol:GuessNumber",
        "label": "randomWord",
        "offset": 0,
        "slot": "3",
        "type": "t_uint256"
      },
      {
        "astId": 1174,
        "contract": "contracts/GuessNumber.sol:GuessNumber",
        "label": "creatingRandomNumber",
        "offset": 0,
        "slot": "4",
        "type": "t_bool"
      }
    ],
    "types": {
      "t_address": {
        "encoding": "inplace",
        "label": "address",
        "numberOfBytes": "20"
      },
      "t_bool": {
        "encoding": "inplace",
        "label": "bool",
        "numberOfBytes": "1"
      },
      "t_mapping(t_address,t_uint256)": {
        "encoding": "mapping",
        "key": "t_address",
        "label": "mapping(address => uint256)",
        "numberOfBytes": "32",
        "value": "t_uint256"
      },
      "t_uint256": {
        "encoding": "inplace",
        "label": "uint256",
        "numberOfBytes": "32"
      }
    }
  }
}